:020000040800F2
:1000000000000120D1010008C10B0008C30B00084B
:10001000C50B0008C70B0008C90B00080000000052
:10002000000000000000000000000000CB0B0008F2
:10003000CD0B000800000000CF0B0008D10B00081A
:100040002102000821020008210200082102000804
:100050002102000821020008D90B0008E30B000868
:10006000ED0B0008F70B0008010C00082102000846
:1000700021020008210200082102000821020008D4
:1000800021020008210200082102000821020008C4
:100090002102000821020008210200080B0C0008C0
:1000A00021020008210200082102000821020008A4
:1000B00021020008000000000000000021020008EA
:1000C00021020008000000000000000021020008DA
:1000D00000000000210200082102000800000000CA
:1000E000310C0008210200080000000000000000A0
:1000F0000000000000000000000000000000000000
:1001000000000000000000000000000021020008C4
:100110000000000000000000210200084D0C000853
:10012000610C0008210200082102000821020008D9
:100130002102000800000000000000000000000094
:100140002102000821020008210200082102000803
:1001500021020008210200082102000821020008F3
:10016000210200082102000821020008000000000E
:100170002102000821020008000000000000000029
:1001800021020008210200082102000800000000EE
:1001900010B5054C237833B9044B13B10448AFF3C1
:1001A00000800123237010BD080000200000000023
:1001B0008C23000808B5034B1BB103490348AFF378
:1001C000008008BD000000000C0000208C23000807
:1001D000DFF834D0002103E00C4B5B58435004316E
:1001E0000B480C4B42189A42F6D30B4A02E000230C
:1001F00042F8043B094B9A42F9D300F039FD02F072
:1002000099F800F0F9F9FEE7000001200024000849
:100210000000002008000020080000202402002028
:10022000FEE700002DE9F0418AB000240594069411
:10023000079408940994594BDA6C42F00402DA648A
:10024000DA6C02F004020192019ADA6C42F00102C7
:10025000DA64DA6C02F001020292029ADA6C42F07D
:100260000202DA64DA6C02F002020392039ADA6C98
:1002700042F08002DA64DB6C03F080030493049B99
:10028000474E22464FF44041304600F063FF22467D
:1002900040F608014FF0904000F05CFF414D2246CF
:1002A0001021284600F056FF4FF4404305934FF0CD
:1002B0000108CDF8188002270797089405A9304651
:1002C00000F088FE49F237730593374E069607947F
:1002D00005A94FF0904000F07DFE40F6080305931D
:1002E000CDF818800797089405A94FF0904000F0CA
:1002F00071FE10230593CDF818800797089405A97F
:10030000284600F067FEC02305930696079405A9CA
:10031000284600F05FFE082505950696079405A976
:10032000224800F057FE22462146062000F01EFD1E
:10033000062000F04FFD22462146072000F016FD62
:10034000072000F047FD22462146284600F00EFD1A
:10035000284600F03FFD22462146092000F006FD18
:10036000092000F037FD224621460A2000F0FEFC5D
:100370000A2000F02FFD22462146172000F0F6FC4F
:10038000172000F027FD22462146282000F0EEFC31
:10039000282000F01FFD0AB0BDE8F08100100240E7
:1003A000000800480004004800001110001C00482C
:1003B00000B583B00A4B9A6C42F002029A649B6CBF
:1003C00003F002030193019B00221146382000F044
:1003D000CDFC382000F0FEFC03B05DF804FB00BF4C
:1003E0000010024030B597B0002413941494159473
:1003F0000C940D940E940F941094119412942C223A
:10040000214601A801F0BAFF204D214B2B606C6002
:10041000AC60EC602C616C61AC61284601F0E7FDDA
:1004200013941494159413A9284601F00DFF60232A
:100430000C930D940E940F941094119412942246E0
:100440000CA9284601F028FE04220CA9284601F038
:1004500023FE08220CA9284601F01EFE01940294F6
:100460000394049405944FF400530693079408945E
:100470004FF0007309930A940B9401A9284601F0E8
:1004800011FF284600F042FB17B030BDFC000020F1
:10049000002C014030B593B000240B940C940D94C3
:1004A0000E940F94109411942C222146684601F06A
:1004B00065FF174D174B2B606C60AC60EC602C61D6
:1004C0006C61AC61284601F079FD284601F08FFD92
:1004D00060230B930C940D940E940F94109411942C
:1004E00022460BA9284601F0D7FD009401940294FE
:1004F000039404944FF4005305930A9469462846E4
:1005000001F0D0FE284600F001FB13B030BD00BF63
:10051000540100200044014030B585B0002401940E
:1005200002940394094D0A4B2B606C60AC604FF44D
:100530007A73EB60AC61284601F040FD01940394AE
:1005400001A9284601F080FE05B030BD94010020CD
:100550000014004008B50D480D4B036000234360B4
:100560004FF4806282604FF47062C2600361436145
:100570004FF4007282610362436283620722C262A7
:100580000363436301F09EFA08BD00BF78000020BA
:10059000003C004010B596B02422002106A801F0CE
:1005A000EDFE00240094019402940394049410231B
:1005B000059301220B9260230D9302230F93109257
:1005C000119228221292072213921493159305A8D0
:1005D00000F0DCFE0F2300930323019302940394A5
:1005E00004940421684601F0ABF94FF4007000F068
:1005F000D1FD16B010BD000008B500F077FBFFF785
:10060000C9FFFFF70FFEFFF7D3FEFFF7EBFEFFF783
:1006100041FFFFF79FFFFFF77FFF01F041FA234EF5
:100620003060234D0021284601F0E2FD214C0021DD
:10063000204601F0DDFD0421204601F0D9FD08210E
:10064000204601F0D5FD216833681B4A82FB030276
:10065000DB17C3EB2223CB62E360284601F08AFB61
:10066000204601F087FB204600F050FA284600F0B3
:100670004DFA2A6800235363226853639363D3635C
:10068000FFF74AFF0D4C204601F074FB236801225E
:100690005A62DA6842F00102DA604FF48041084899
:1006A00000F05DFD642000F03FFBF6E7E000002075
:1006B00054010020FC0000201F85EB519401002014
:1006C00000080048B0F5805F0AD0402811D080288B
:1006D00018D008281FD0013880B2012824D97047CB
:1006E0005D4B01221A705D4B00200021C3E900011F
:1006F00070475B4B01221A705A4B00200021C3E95E
:1007000000017047584B01221A70584B00200021FD
:10071000C3E900017047564B01221A70554B002067
:100720000021C3E9000170474FF090431A6919692D
:10073000514B1B782BB95148007810B90AB90029E0
:10074000CDD01BB94D480078012826D0012B29D0E7
:10075000012B30D02DE9300823B94848007808B97A
:10076000002A33D01BB94548007801282CD0012B32
:100770003CD0012B43D023B94048007808B9012A66
:1007800048D01BB93D480078012841D0012B51D0F9
:10079000012B58D0BDE830087047002AD6D1012976
:1007A000D4D19CE7354800780028D1D1012ACFD197
:1007B0000029CDD193E7314800780128CAD1012A18
:1007C000C8D10129C6D18AE7012AD0D10129CED1C9
:1007D000224BD3E9004514F1010B45F1000CC3E9AC
:1007E00000BC254B1A70254B1970D3E723480078BD
:1007F0000128BED1012ABCD10029BAD1E8E71F489F
:1008000000780028B7D1002AB5D10029B3D1DFE79D
:10081000002ABBD10029B9D1104BD3E9004514F10E
:10082000FF3B45F1FF3CC3E900BC134B1A70134B6F
:100830001970AFE7114800780028A9D1012AA7D183
:100840000129A5D1E8E70D4B1B78012BA2D1002A85
:10085000A0D101299ED1DFE72B0000204800002015
:100860002A0000204000002029000020380000203D
:1008700028000020300000203C0100206D000020F6
:100880003E4B93ED007AB5EEC07AF1EE10FA4EDDF4
:100890003B4B5A695A613B4B1B683B4A82FB031234
:1008A000DB17C3EB222307EE903AF8EEE77A27EE48
:1008B000277A364B1B68BCEEC77A83ED0D7A344B32
:1008C00093ED007AB5EEC07AF1EE10FA38DD4FF014
:1008D00090435A695A6127EE877A2E4B1B68BCEE0B
:1008E000C77A83ED0D7A2C4A92ED007AB5EEC07A84
:1008F000F1EE10FA2EDD294A5169516127EE877A0F
:10090000BCEEC77A83ED0E7A254A92ED007AB5EEF9
:10091000C07AF1EE10FA26DD4FF090425169516134
:1009200067EE877AFCEEE77AC3ED0F7A7047B5EE93
:10093000C07AF1EE10FAAED5114B5A695A61AAE7A6
:10094000B5EEC07AF1EE10FAC5D54FF090435A6972
:100950005A61C0E7B5EEC07AF1EE10FACED50F4A73
:1009600051695161CAE7B5EEC07AF1EE10FAD7D5F8
:100970004FF0904251695161D2E700BF5000002012
:1009800000080048E00000201F85EB5154010020C2
:1009900070000020FC000020DC0000200004004863
:1009A000D40100207047000082B00A4B1A6E42F05A
:1009B00001021A661A6E02F001020092009A9A6D04
:1009C00042F080529A659B6D03F080530193019B26
:1009D00002B070470010024030B589B00023039385
:1009E00004930593069307930268214B9A4201D022
:1009F00009B030BD044603F5EA339A6D42F4004273
:100A00009A659A6D02F400420192019ADA6C42F002
:100A10000202DA64DB6C03F002030293029B2823D8
:100A2000039302230493032506950623079303A942
:100A3000104800F0CFFA1048104B036045600023C7
:100A40008360C360802202614FF4807242614FF480
:100A500080628261C3614FF40053036200F0DCF9ED
:100A600018B9054BA3659C62C2E7FFF79BFFF8E747
:100A7000003C004000040048D80100200804024067
:100A80000268094B9A4200D0704782B003F5644374
:100A90001A6E42F400621A661B6E03F4006301933F
:100AA000019B02B0704700BF002C014000B583B02D
:100AB0000368134A934205D0124A934215D003B0FB
:100AC0005DF804FB104B9A6D42F020029A659B6D15
:100AD00003F020030093009B00221146372000F012
:100AE00045F9372000F076F9E9E7074B1A6E42F432
:100AF00000321A661B6E03F400330193019BDEE79C
:100B000000140040004401400010024030B589B09C
:100B10000023039304930593069307930368244AE1
:100B2000934204D0234A93422BD009B030BD224BCC
:100B3000DA6C42F00102DA64DA6C02F0010200922F
:100B4000009ADA6C42F00202DA64DB6C03F0020312
:100B50000193019B802303930225049501240794AC
:100B600003A94FF0904000F035FA03230393049556
:100B7000002305930693079403A9104800F02AFA6E
:100B8000D3E70D4BDA6C42F00102DA64DB6C03F060
:100B900001030293029B40230393022304930E2339
:100BA000079303A94FF0904000F014FABDE700BF8F
:100BB000002C0140004401400010024000040048A5
:100BC0007047FEE7FEE7FEE7FEE7704770477047B5
:100BD00008B500F09BF808BD08B5012000F0C4FA84
:100BE00008BD08B5022000F0BFFA08BD08B5042012
:100BF00000F0BAFA08BD08B5082000F0B5FA08BD43
:100C000008B5102000F0B0FA08BD08B5202000F0AB
:100C1000ABFA402000F0A8FA802000F0A5FA4FF4CB
:100C2000807000F0A1FA4FF4007000F09DFA08BD4A
:100C300008B54FF4806000F097FA4FF4805000F050
:100C400093FA4FF4004000F08FFA08BD08B503484E
:100C500001F0AFF8FFF714FE08BD00BF94010020BB
:100C600008B5024800F054F908BD00BFD8010020C3
:100C70000F49D1F8883043F47003C1F888300D4B28
:100C80001A6842F001021A60002098601A6822F087
:100C9000A85222F410221A604FF48052DA601A68C7
:100CA00022F480221A6098614FF000638B607047D5
:100CB00000ED00E00010024010B50446094B186832
:100CC000094BA3FB0030800900F090F808B1012027
:100CD00010BD002221464FF0FF3000F047F8002001
:100CE000F6E700BF00000020D34D621010B50320CE
:100CF00000F02AF80020FFF7DFFF10B101242046A2
:100D000010BD0446FFF750FEF9E70000024A1368E1
:100D100001331360704700BF20020020014B1868A8
:100D2000704700BF2002002038B50446FFF7F6FFE9
:100D30000546B4F1FF3F00D00134FFF7EFFF401B41
:100D4000A042FAD338BD0000074AD36823F4E06319
:100D50001B041B0C000200F4E060184340F0BF606D
:100D600040F40030D060704700ED00E030B4174B25
:100D7000DB68C3F30223C3F10704042C28BF042457
:100D80001D1D062D18D9033B4FF0FF3505FA04F45D
:100D900021EA0401994005FA03F322EA0303194307
:100DA00000280BDB0901C9B200F1604000F5614089
:100DB00080F8001330BC70470023E5E700F00F0017
:100DC0000901C9B2024B1954F4E700BF00ED00E07D
:100DD00014ED00E000F01F02400901239340024A95
:100DE00042F82030704700BF00E100E00138B0F168
:100DF000807F0AD2064B5860064AF02182F8231001
:100E00000020986007221A6070470120704700BFD9
:100E100010E000E000ED00E0002869D010B40346C7
:100E20000168344A914245D8334A0A443349A1FB08
:100E30000212120992004264314A0264022283F8CB
:100E400025201868016821F4FF4121F070019A689B
:100E5000DC6822431C6922435C6922439C6922436B
:100E6000DC6922431C6A22430A4302609A68B2F595
:100E7000804F15D0196C224A914226D0214A116820
:100E8000586C00F01C040F20A04021EA0001116002
:100E9000116858685C6C04F01C04A04001431160A8
:100EA0000020D863012283F8252083F824005DF810
:100EB000044B7047144A0A441049A1FB021212095C
:100EC00092004264114A0264B8E7A8321168586C73
:100ED00000F01C040F20A04021EA000111601168FD
:100EE00058685C6C04F01C04A04001431160D7E713
:100EF0000120704707040240F8FFFDBFCDCCCCCCE9
:100F000000000240A8040240F8FBFDBF00040240BC
:100F100038B5036C196804682568436C03F01C033A
:100F200004229A400A4215D015F0040F12D023680B
:100F300013F0200F03D1236823F004032360436CD4
:100F400003F01C02016C042393404B60036B03B15C
:100F5000984738BD02229A400A421CD015F0020F71
:100F600019D0236813F0200F06D1236823F00A0359
:100F70002360012380F82530436C03F01C02016CD0
:100F8000022393404B60002380F82430C36A002B77
:100F9000DFD09847DDE7082202FA03F30B42D8D0EE
:100FA00015F0080FD5D0236823F00E032360436C9F
:100FB00003F01C03016C012202FA03F34B60C263CD
:100FC00080F82520002380F82430436B002BC0D00C
:100FD0009847BEE7F0B482B000236FE0866805EA68
:100FE000060CCE68BE4046EA0C068660466826EAD5
:100FF00004044E68C6F300169E4026434660C4684B
:1010000025408C68BC402C43C4604C6814F0805F61
:1010100053D04C4C256E45F001052566246E04F036
:1010200001040194019C9D08AE1C474C54F82670A5
:1010300003F00304A6000F24B44027EA0407B0F12C
:10104000904F77D0414CA04276D004F58064A04206
:101050006ED00724B4403C4302353B4E46F8254051
:101060003B4C2568D44304EA05064F6817F4803FDB
:1010700001D042EA0506364D2E606D6804EA050689
:101080004F6817F4003F01D042EA0506304D6E600C
:10109000AD6804EA05064F6817F4801F01D042EAE4
:1010A00005062B4DAE60ED682C404E6816F4001F0F
:1010B00001D042EA0504264AD46001330A6832FAB4
:1010C00003F43BD001249C402240F6D04D68022D11
:1010D00001D0122D10D1DE08083650F826C003F0DA
:1010E0000705AF000F25BD402CEA050C0D69BD407A
:1010F00045EA0C0540F8265006685F000325BD4010
:10110000ED4305EA060C4E6806F00306BE4046EACB
:101110000C0606604E6806F1FF3CBCF1010F7FF63D
:101120005DAF112E3FF45AAF122E7FF468AF55E732
:1011300002248FE700248DE701248BE702B0F0BC86
:10114000704700BF0010024000000140000400484A
:10115000000401400AB981627047816170474369A8
:10116000594041617047000008B5054B5B69034277
:1011700000D108BD024B5861FFF7A4FAF9E700BFA0
:1011800000040140024B186800F4C060704700BFC3
:1011900000700040B0F5007F0FD01F4B1B6803F4B8
:1011A000C063B3F5806F34D01B4A136823F4C06367
:1011B00043F48063136000207047174B1B6803F4EF
:1011C000C063B3F5007F22D0134A136823F4C063D1
:1011D00043F400731360114B1A68322303FB02F3CC
:1011E0000F4AA2FB03239B0C013300E0013B0A4A98
:1011F000526912F4806F01D0002BF7D1064B5B6966
:1012000013F4806F01D10020704703207047002045
:1012100070470020704700BF0070004000000020B1
:1012200083DE1B4330B583B00546204B9B6D13F026
:10123000805F0BD0FFF7A6FFB0F5007F17D0802DA1
:101240001FD82DD0702D2DD000211BE0174CA36D81
:1012500043F08053A365A36D03F080530193019B7A
:10126000FFF790FFA36D23F08053A365E4E7802D83
:1012700003D9A02D03D9022104E0002102E00121BD
:1012800000E003210A4A136823F007030B431360AD
:10129000136803F007038B4206D0012003B030BD72
:1012A0000221EFE70121EDE70020F7E700100240FF
:1012B00000200240314A9368D26802F0030213F022
:1012C0000C030AD00C2B06D0042B1FD0082B20D0E7
:1012D0000020014610E0012AF6D1284A126812F0D7
:1012E000080F0CD1254AD2F89420C2F303222449D6
:1012F00051F8221043B100200C2B0DD070471F4A2B
:101300001268C2F30312F2E70846F5E71D48002110
:10131000F2E71D480021EFE7184BDA6802F00302FC
:10132000DB68C3F302130133022A0AD0032A1AD05E
:10133000B1FBF3F3114AD068C0F3062000FB03F0C1
:1013400008E01048B0FBF3F30C4AD068C0F3062065
:1013500000FB03F0094BDB68C3F3416301335B001F
:10136000B0FBF3F0CAE70848B0FBF3F3034AD068D8
:10137000C0F3062000FB03F0ECE700BF00100240C2
:10138000A82300080024F40000127A00002800F0CE
:10139000C182F0B583B00446AC4B9D6805F00C05E6
:1013A000DE6806F00306036813F0100F5DD0E5B1A8
:1013B0000C2D18D0A369002B00F0B780A34A136846
:1013C00043F001031360FFF7A9FC07469F4B1B681E
:1013D00013F0020F40F09680FFF7A0FCC01B02281C
:1013E000F4D90323A2E2012EE4D1984B1B6813F039
:1013F000020F03D0A369002B00F08F82206A934B69
:101400001B6813F0080F5DD0904B1B6803F0F003CE
:1014100098425ED9FFF706FF002840F080828B4B90
:101420001A6842F008021A601A6822F0F002216A73
:101430000A431A605A6822F47F42E16942EA0122B3
:101440005A60FFF737FF814B9B68C3F30313804A51
:10145000D35C03F01F03D8407E4B18600020FFF7D9
:101460002BFC0346002840F06182236813F0010F33
:101470007AD0082D6FD00C2D6BD06368B3F5803F08
:1014800000F09180B3F5A02F00F093806F4B1A68A5
:1014900022F480321A601A6822F480221A6063688B
:1014A000002B00F09380FFF739FC0746674B1B6861
:1014B00013F4003F58D1FFF731FCC01B6428F5D965
:1014C000032333E2614BD3F894301B0903F0F0039C
:1014D0009EE75E4B1A6842F008021A601A6822F012
:1014E000F002216A0A431A605A6822F47F42E169D5
:1014F00042EA01225A60206AFFF794FE0028A0D039
:10150000012313E2514B1A6842F008021A601A686C
:1015100022F0F002216A0A431A605A6822F47F42DC
:10152000E16942EA01225A609FE7484A136823F0C2
:1015300001031360FFF7F2FB0746444B1B6813F0EF
:10154000020F92D0FFF7EAFBC01B0228F5D9032354
:10155000ECE1032E91D13D4B1B6813F4003F03D007
:101560006368002B00F0DD81236813F0020F4FD079
:10157000042D3CD00C2D38D0E368002B75D0334AB5
:10158000136843F480731360FFF7C8FB06462F4BC4
:101590001B6813F4806F5FD1FFF7C0FB801B02282C
:1015A000F5D90323C2E1294A136843F48033136059
:1015B00075E703F18043A3F53C331A6842F48022B7
:1015C0001A601A6842F480321A6068E7FFF7A6FBD7
:1015D00007461E4B1B6813F4003FC5D0FFF79EFB68
:1015E000C01B6428F5D90323A0E1022EC4D1174BF8
:1015F0001B6813F4806F03D0E368002B00F0938125
:10160000124A536823F0F853216943EA0163536097
:10161000236813F0080F53D06369002B39D00B4AAD
:10162000D2F8943043F00103C2F89430FFF776FB10
:101630000646064BD3F8943013F0020F40D1FFF763
:101640006DFB801B0228F4D903236FE100100240D8
:10165000D823000800000020B74A536823F0F8534D
:10166000216943EA01635360D2E7B34A136823F464
:1016700080731360FFF752FB0646AF4B1B6813F4F1
:10168000806FC5D0FFF74AFB801B0228F5D90323E2
:101690004CE1A94AD2F8943023F00103C2F8943007
:1016A000FFF73CFB0646A44BD3F8943013F0020F2F
:1016B00006D0FFF733FB801B0228F4D9032335E162
:1016C000236813F0040F7AD09B4B9B6D13F0805F5F
:1016D0000BD1994B9A6D42F080529A659B6D03F045
:1016E00080530193019B012600E00026934B1B6869
:1016F00013F4807F26D0A368012B37D0052B3DD073
:101700008D4BD3F8902022F00102C3F89020D3F83B
:10171000902022F00402C3F89020A368002B3BD055
:10172000FFF7FCFA0746844BD3F8903013F0020F12
:1017300044D1FFF7F3FAC01B41F288339842F2D943
:101740000323F3E07D4A136843F480731360FFF7CB
:10175000E5FA0746794B1B6813F4807FCBD1FFF77E
:10176000DDFAC01B0228F5D90323DFE0724AD2F864
:10177000903043F00103C2F89030CEE76E4BD3F8BF
:10178000902042F00402C3F89020D3F8902042F059
:101790000102C3F89020C0E7FFF7C0FA0746664B86
:1017A000D3F8903013F0020F08D0FFF7B7FAC01B40
:1017B00041F288339842F2D90323B7E0E6B92368AF
:1017C00013F0200F35D0636AE3B15B4AD2F898304A
:1017D00043F00103C2F89830FFF7A0FA0646564BD3
:1017E000D3F8983013F0020F23D1FFF797FA801B3C
:1017F0000228F4D9032399E04F4A936D23F08053D4
:101800009365DCE74C4AD2F8983023F00103C2F824
:101810009830FFF783FA0646474BD3F8983013F019
:10182000020F06D0FFF77AFA801B0228F4D90323AF
:101830007CE0A36A002B78D00C2D7AD0022B23D029
:101840003D4B1A6822F080721A601B6813F0006F1B
:1018500004D1394AD36823F00303D360364AD368EE
:1018600023F0887323F48033D360FFF757FA0446DC
:10187000314B1B6813F0007F4AD0FFF74FFA001B73
:101880000228F5D9032351E02B4A136823F0807313
:101890001360FFF743FA0546274B1B6813F0007FE0
:1018A00006D0FFF73BFA401B0228F5D903233DE0A1
:1018B000236B5A1E636B1B0243EA0213E26A134353
:1018C000E26B5208013A43EA4253226C5208013A51
:1018D00043EA4263A26B43EAC263174AD3601368C8
:1018E00043F080731360D36843F08073D360FFF7D5
:1018F00015FA0446104B1B6813F0007F06D1FFF762
:101900000DFA001B0228F5D903230FE000230DE098
:1019100000230BE0012318467047012306E0012352
:1019200004E0012302E0012300E00023184603B095
:10193000F0BD0123FAE700BF001002400070004034
:10194000002800F09A8070B504464E4B1B6803F0E7
:1019500007038B420CD24B4A136823F007030B4357
:101960001360136803F007038B4201D0012070BDA0
:101970000D46236813F0010F39D06368032B09D09B
:10198000022B26D063BB404A126812F0020F06D128
:101990000120ECE73C4A126812F0007F6FD03A4910
:1019A0008A6822F0030213438B60FFF7B7F90646FB
:1019B000354B9B6803F00C036268B3EB820F16D0C3
:1019C000FFF7ACF9801B41F288339842F0D903202D
:1019D000CDE72D4A126812F4003FE0D10120C6E79E
:1019E000294A126812F4806FD9D10120BFE7236819
:1019F00013F0020F06D0244A936823F0F003A16885
:101A00000B4393601F4B1B6803F00703AB420CD9D9
:101A10001C4A136823F007032B431360136803F079
:101A20000703AB4201D00120A1E7236813F0040FA4
:101A300006D0154A936823F4E063E1680B43936092
:101A4000236813F0080F07D00F4A936823F46053FC
:101A5000216943EAC1039360FFF72CFC0A4B9B68A2
:101A6000C3F30313094AD35C03F01F03D840084BA8
:101A700018600020FFF720F979E701207047012066
:101A800075E700BF0020024000100240D823000884
:101A900000000020014B1868704700BF00000020C4
:101AA00008B5FFF7F7FF054B9B68C3F3C223044A51
:101AB000D35C03F01F03D84008BD00BF00100240F4
:101AC000E8230008002853D010B5044600238362A1
:101AD00090F85D30002B40D0022384F85D302268FE
:101AE000136823F040031360E368B3F5E06F39D95E
:101AF0000022B3F5706F04D0B3F5E06F01D0002180
:101B0000A162216B21B9B3F5E06F2ED902232363C3
:101B10006368A1680B4321690B4361690B43A169A9
:101B200001F400710B43E1690B43216A0B43A06A86
:101B3000216803430B60638B03F00403616A0B436A
:101B4000616B0B43E1680B43216813434B6000203A
:101B50002066012384F85D3010BD80F85C30FEF70C
:101B60003BFFB9E74FF48052C3E701232363CFE77C
:101B70000120704730B4036A23F001030362036A53
:101B80004468826922F4803222F073020D682A438D
:101B900023F002038D682B43144DA84207D005F5AE
:101BA000A055A84203D005F58065A84205D123F0D1
:101BB0000803CD682B4323F004030C4DA84207D043
:101BC00005F5A055A84203D005F58065A84205D1CA
:101BD00024F440754C692C438D692C434460826128
:101BE0004A684263036230BC704700BF002C01406A
:101BF00030B4036A23F480730362036A4268C469E1
:101C000024F4803424F073040D682C4323F400730F
:101C10008D6843EA0523124DA84219D0104DA84201
:101C200007D005F5A055A84203D005F58065A84268
:101C300007D122F440524D6942EA05128D6942EA09
:101C400005124260C4614A68C263036230BC7047D7
:101C500023F40063CD6843EA052323F48063DDE7C2
:101C6000002C014030B4036A23F480530362026AFB
:101C70004468C36923F0807323F4E6430D6843EAA4
:101C8000052322F400528D6842EA05320B4DA8422A
:101C900007D005F5A055A84203D005F58065A842F8
:101CA00004D124F480444D6944EA85144460C3613E
:101CB0004B680364026230BC704700BF002C0140D7
:101CC00030B4036A23F480330362036A4468426DCC
:101CD00022F4803222F070020D682A4323F400338C
:101CE0008D6843EA05430B4DA84207D005F5A05582
:101CF000A84203D005F58065A84204D124F48034BD
:101D00004D6944EA0524446042654A68826503627D
:101D100030BC7047002C014030B4036A23F48013B8
:101D20000362026A4468436D23F0807323F4E04346
:101D30000D6843EA052322F400128D6842EA055239
:101D40000B4DA84207D005F5A055A84203D005F5D4
:101D50008065A84204D124F480244D6944EA852496
:101D6000446043654B68C365026230BC704700BF86
:101D7000002C0140022380F83D3002689168094B35
:101D80000B40062B09D09168064B0B40B3F5803F02
:101D900003D0136843F001031360012380F83D3042
:101DA0000020704707000100704770477047704778
:101DB000704710B5044603681A6912F0020F11D07B
:101DC000DA6812F0020F0DD06FF002021A610123DF
:101DD000037703689B6913F0030F79D0FFF7E6FFE1
:101DE0000023237723681A6912F0040F12D0DA68EF
:101DF00012F0040F0ED06FF004021A610223237751
:101E000023689B6913F4407F68D02046FFF7CEFF1C
:101E10000023237723681A6912F0080F12D0DA68BA
:101E200012F0080F0ED06FF008021A610423237716
:101E30002368DB6913F0030F57D02046FFF7B6FF86
:101E40000023237723681A6912F0100F12D0DA6882
:101E500012F0100F0ED06FF010021A6108232377D2
:101E60002368DB6913F4407F46D02046FFF79EFFCE
:101E70000023237723681A6912F0010F03D0DA6870
:101E800012F0010F3FD123681A6912F0800F03D0BE
:101E9000DA6812F0800F3DD123681A6912F4807F4E
:101EA00003D0DA6812F0800F3BD123681A6912F070
:101EB000400F03D0DA6812F0400F39D123681A6955
:101EC00012F0200F03D0DA6812F0200F37D110BDC6
:101ED000FFF76BFF2046FFF76AFF81E72046FFF719
:101EE00064FF2046FFF763FF92E72046FFF75DFFA0
:101EF0002046FFF75CFFA3E72046FFF756FF20468A
:101F0000FFF755FFB4E76FF001021A612046FFF7B3
:101F10004BFFB8E76FF080021A61204600F007FA25
:101F2000BAE76FF480721A61204600F001FABCE74C
:101F30006FF040021A612046FFF73AFFBEE76FF0EC
:101F400020021A61204600F0F1F9C0E703681A4A3E
:101F5000904202D0B0F1804F03D123F070034A6861
:101F60001343154A90420AD0B0F1804F07D002F5D2
:101F7000A052904203D002F58062904203D123F434
:101F80004073CA68134323F080034A691343036014
:101F90008B68C3620B688362074B984207D003F5D6
:101FA000A053984203D003F58063984201D10B6996
:101FB0000363012343617047002C0140A8B110B5B1
:101FC000044690F83D305BB1022384F83D30211D7A
:101FD0002068FFF7BBFF012384F83D30002010BDCF
:101FE00080F83C30FEF762FDEEE701207047A8B1B3
:101FF00010B5044690F83D305BB1022384F83D30C3
:10200000211D2068FFF7A2FF012384F83D30002046
:1020100010BD80F83C30FEF733FDEEE7012070473D
:1020200030B4036A23F010030362036A44688269D0
:1020300022F0807222F4E6420D6842EA052223F083
:1020400020038D6843EA0513124DA84219D0114DA3
:10205000A84207D005F5A055A84203D005F5806534
:10206000A84207D124F440644D6944EA85048D698F
:1020700044EA8504446082614A688263036230BC3A
:10208000704723F08003CD6843EA051323F0400333
:10209000DDE700BF002C014038B590F83C30012B43
:1020A00000F092800D460446012380F83C30022364
:1020B00080F83D30142A1ED8DFE802F00B1D1D1DEC
:1020C000241D1D1D381D1D1D4B1D1D1D5F1D1D1DAE
:1020D00072000068FFF74EFD2268936943F0080321
:1020E00093612268936923F00403936122689369E2
:1020F00029690B439361012384F83D30002084F863
:102100003C0038BD0068FFF78BFF2268936943F4F9
:10211000006393612268936923F48063936122686A
:102120009369296943EA01239361E4E70068FFF7B3
:102130005FFD2268D36943F00803D3612268D36945
:1021400023F00403D3612268D36929690B43D36167
:10215000D1E70068FFF786FD2268D36943F4006386
:10216000D3612268D36923F48063D3612268D36981
:10217000296943EA0123D361BDE70068FFF7A0FDA9
:102180002268536D43F0080353652268536D23F0B2
:10219000040353652268536D29690B435365AAE70D
:1021A0000068FFF7B9FD2268536D43F4006353657F
:1021B0002268536D23F4806353652268536D296947
:1021C00043EA0123536596E702209AE710B401F031
:1021D0001F01012303FA01F4036A23EA04030362E3
:1021E000036A8A40134303625DF8044B70470000A2
:1021F00010B5044601220068FFF7E8FF2368104A83
:10220000934207D002F5A052934203D002F58062B8
:10221000934203D15A6C42F400425A642268916896
:10222000084B0B40062B09D09168064B0B40B3F5C9
:10223000803F03D0136843F001031360002010BDFA
:10224000002C01400700010090F83C30012B25D004
:1022500030B4012380F83C30022380F83D3002681E
:10226000536895680E4CA24213D023F070030C689B
:10227000234325F0800489682143536003689960F3
:10228000012380F83D30002380F83C30184630BCF4
:10229000704723F470034C682343E6E7022070473D
:1022A000002C014090F83C30012B3BD010B40123AE
:1022B00080F83C30CB6823F440738A68134323F4DE
:1022C00080634A68134323F400630A68134323F4CA
:1022D00080530A69134323F400534A69134323F4D8
:1022E00080438A6A134323F470238A6943EA0243D2
:1022F00002680D4CA24207D05364002380F83C30A2
:1023000018465DF8044B704723F470034C6A43EAA7
:10231000045323F08073CC69234323F00073096ACC
:102320000B43E9E702207047002C014070477047DB
:102330007047000070B50D4E0D4CA41BA410002575
:10234000A54209D10B4E0C4C00F020F8A41BA410A0
:102350000025A54205D170BD56F8253098470135B6
:10236000EEE756F8253098470135F2E7F0230008EC
:10237000F0230008F0230008F42300080244034679
:10238000934200D1704703F8011BF9E7F8B500BF8D
:10239000F8BC08BC9E467047F8B500BFF8BC08BC46
:0823A0009E467047000000009A
:1023A800A0860100400D0300801A060000350C00CD
:1023B80040420F0080841E0000093D0000127A0090
:1023C8000024F40000366E010048E801006CDC02CD
:1023D80000000000000000000102030406070809CD
:0823E8000000000001020304E3
:0823F000B50100080000000027
:0823F800910100080000000043
:0824000000093D00000000008E
:04000005080001D11D
:00000001FF
