:020000040800F2
:1000000000000120C90B000811210008132100087D
:100010001521000817210008192100080000000020
:100020000000000000000000000000001B2100088C
:100030001D210008000000001F21000821210008E8
:10004000190C0008190C0008190C0008190C0008FC
:10005000190C0008190C0008292100083321000898
:100060003D2100084721000851210008190C000813
:10007000190C0008190C0008190C0008190C0008CC
:10008000190C0008190C0008190C0008190C0008BC
:10009000190C0008190C0008190C00085B21000855
:1000A000190C0008190C0008190C0008190C00089C
:1000B000190C00080000000000000000190C0008E6
:1000C000190C00080000000000000000190C0008D6
:1000D00000000000190C0008190C000800000000C6
:1000E00081210008190C0008000000000000000039
:1000F0000000000000000000000000000000000000
:10010000000000000000000000000000190C0008C2
:100110000000000000000000190C00089D210008EC
:10012000B1210008190C0008190C0008190C00086E
:10013000190C000800000000000000000000000092
:10014000190C0008190C0008190C0008190C0008FB
:10015000190C0008190C0008190C0008190C0008EB
:10016000190C0008190C0008190C00080000000008
:10017000190C0008190C0008000000000000000025
:10018000190C0008190C0008190C000800000000E8
:1001900010B5054C237833B9044B13B10448AFF3C1
:1001A00000800123237010BD080000200000000023
:1001B0008040000808B5034B1BB103490348AFF367
:1001C000008008BD000000000C00002080400008F6
:1001D00081F0004102E000BF83F0004330B54FEAF8
:1001E00041044FEA430594EA050F08BF90EA020F65
:1001F0001FBF54EA000C55EA020C7FEA645C7FEAF8
:10020000655C00F0E2804FEA5454D4EB5555B8BF1A
:100210006D420CDD2C4480EA020281EA030382EA8B
:10022000000083EA010180EA020281EA0303362D1D
:1002300088BF30BD11F0004F4FEA01314FF4801CF0
:100240004CEA113102D0404261EB410113F0004F02
:100250004FEA03334CEA133302D0524263EB4303B9
:1002600094EA050F00F0A780A4F10104D5F1200E57
:100270000DDB02FA0EFC22FA05F2801841F10001B2
:1002800003FA0EF2801843FA05F359410EE0A5F186
:1002900020050EF1200E012A03FA0EFC28BF4CF0B7
:1002A000020C43FA05F3C01851EBE37101F000456D
:1002B00007D54FF0000EDCF1000C7EEB00006EEB7A
:1002C0000101B1F5801F1BD3B1F5001F0CD3490804
:1002D0005FEA30004FEA3C0C04F101044FEA44525B
:1002E00012F5800F80F09A80BCF1004F08BF5FEAE2
:1002F000500C50F1000041EB045141EA050130BDC2
:100300005FEA4C0C404141EB010111F4801FA4F164
:100310000104E9D191F0000F04BF01460020B1FAB9
:1003200081F308BF2033A3F10B03B3F120020CDAF1
:100330000C3208DD02F1140CC2F10C0201FA0CF0CF
:1003400021FA02F10CE002F11402D8BFC2F1200C34
:1003500001FA02F120FA0CFCDCBF41EA0C019040EA
:10036000E41AA2BF01EB0451294330BD6FEA040433
:100370001F3C1CDA0C340EDC04F11404C4F120021E
:1003800020FA04F001FA02F340EA030021FA04F330
:1003900045EA030130BDC4F10C04C4F1200220FA87
:1003A00002F001FA04F340EA0300294630BD21FAC5
:1003B00004F0294630BD94F0000F83F4801306BF8B
:1003C00081F480110134013D4EE77FEA645C18BF7F
:1003D0007FEA655C29D094EA050F08BF90EA020F16
:1003E00005D054EA000C04BF1946104630BD91EA0E
:1003F000030F1EBF0021002030BD5FEA545C05D111
:100400004000494128BF41F0004130BD14F580044F
:100410003CBF01F5801130BD01F0004545F0FE41C3
:1004200041F470014FF0000030BD7FEA645C1ABFF8
:10043000194610467FEA655C1CBF0B46024650EA2F
:10044000013406BF52EA033591EA030F41F400215B
:1004500030BD00BF90F0000F04BF0021704730B5E1
:100460004FF4806404F132044FF000054FF00001B6
:1004700050E700BF90F0000F04BF0021704730B577
:100480004FF4806404F1320410F0004548BF40424C
:100490004FF000013EE700BF42004FEAE2014FEAA1
:1004A00031014FEA02701FBF12F07F4393F07F4F7C
:1004B00081F06051704732F07F4208BF704793F07F
:1004C0007F4F04BF41F40021704730B54FF4607492
:1004D00001F0004521F000411CE700BF50EA010295
:1004E00008BF704730B54FF000050AE050EA01023E
:1004F00008BF704730B511F0004502D5404261EBAE
:1005000041014FF4806404F132045FEA915C3FF4EE
:10051000D8AE4FF003025FEADC0C18BF03325FEA8B
:10052000DC0C18BF033202EBDC02C2F1200300FA3C
:1005300003FC20FA02F001FA03FE40EA0E0021FA61
:1005400002F11444BDE600BF70B54FF0FF0C4CF44F
:10055000E06C1CEA11541DBF1CEA135594EA0C0F01
:1005600095EA0C0F00F0DEF82C4481EA030621EA3C
:100570004C5123EA4C5350EA013518BF52EA033577
:1005800041F4801143F4801338D0A0FB02CE4FF029
:100590000005E1FB02E506F00042E0FB03E54FF059
:1005A0000006E1FB03569CF0000F18BF4EF0010E51
:1005B000A4F1FF04B6F5007F64F5407404D25FEA4D
:1005C0004E0E6D4146EB060642EAC62141EA555100
:1005D0004FEAC52040EA5E504FEACE2EB4F1FD0C42
:1005E00088BFBCF5E06F1ED8BEF1004F08BF5FEAC0
:1005F000500E50F1000041EB045170BD06F0004672
:1006000046EA010140EA020081EA0301B4EB5C041E
:10061000C2BFD4EB0C0541EA045170BD41F4801116
:100620004FF0000E013C00F3AB8014F1360FDEBF3B
:10063000002001F0004170BDC4F10004203C35DA17
:100640000C341BDC04F11404C4F1200500FA05F39A
:1006500020FA04F001FA05F240EA020001F000423B
:1006600021F0004110EBD37021FA04F642EB0601B1
:100670005EEA430E08BF20EAD37070BDC4F10C04DB
:10068000C4F1200500FA04F320FA05F001FA04F29F
:1006900040EA020001F0004110EBD37041F100018B
:1006A0005EEA430E08BF20EAD37070BDC4F1200596
:1006B00000FA05F24EEA020E20FA04F301FA05F2FE
:1006C00043EA020321FA04F001F0004121FA04F2A6
:1006D00020EA020000EBD3705EEA430E08BF20EA76
:1006E000D37070BD94F0000F0FD101F000464000B0
:1006F00041EB010111F4801F08BF013CF7D041EA32
:10070000060195F0000F18BF704703F00046520035
:1007100043EB030313F4801F08BF013DF7D043EA06
:100720000603704794EA0C0F0CEA135518BF95EABC
:100730000C0F0CD050EA410618BF52EA4306D1D143
:1007400081EA030101F000414FF0000070BD50EA62
:10075000410606BF1046194652EA430619D094EAEC
:100760000C0F02D150EA013613D195EA0C0F05D1D6
:1007700052EA03361CBF104619460AD181EA03012A
:1007800001F0004141F0FE4141F470014FF00000E2
:1007900070BD41F0FE4141F4780170BD70B54FF07D
:1007A000FF0C4CF4E06C1CEA11541DBF1CEA1355FD
:1007B00094EA0C0F95EA0C0F00F0A7F8A4EB0504DF
:1007C00081EA030E52EA03354FEA013100F08880D6
:1007D0004FEA03334FF0805545EA131343EA12639F
:1007E0004FEA022245EA111545EA10654FEA002654
:1007F0000EF000419D4208BF964244F1FD0404F50D
:10080000407402D25B084FEA3202B61A65EB030568
:100810005B084FEA32024FF480104FF4002CB6EB25
:10082000020E75EB030E22BFB61A754640EA0C00A5
:100830005B084FEA3202B6EB020E75EB030E22BFE5
:10084000B61A754640EA5C005B084FEA3202B6EB26
:10085000020E75EB030E22BFB61A754640EA9C00E5
:100860005B084FEA3202B6EB020E75EB030E22BFB5
:10087000B61A754640EADC0055EA060E18D04FEA73
:10088000051545EA16754FEA06164FEAC30343EA13
:1008900052734FEAC2025FEA1C1CC0D111F4801FE0
:1008A0000BD141EA00014FF000004FF0004CB6E7D9
:1008B00011F4801F04BF01430020B4F1FD0C88BF78
:1008C000BCF5E06F3FF6AFAEB5EB030C04BFB6EB83
:1008D000020C5FEA500C50F1000041EB045170BD76
:1008E0000EF0004E4EEA113114EB5C04C2BFD4EBA3
:1008F0000C0541EA045170BD41F480114FF0000E27
:10090000013C90E645EA060E8DE60CEA135594EAA2
:100910000C0F08BF95EA0C0F3FF43BAF94EA0C0FA5
:100920000AD150EA01347FF434AF95EA0C0F7FF41A
:1009300025AF104619462CE795EA0C0F06D152EA6E
:1009400003353FF4FDAE1046194622E750EA410652
:1009500018BF52EA43067FF4C5AE50EA41047FF463
:100960000DAF52EA43057FF4EBAE12E74A0011D215
:1009700012F5001211D20DD56FF47873B3EB6252F9
:100980000ED44FEAC12343F0004343EA505323FA05
:1009900002F070474FF00000704750EA013002D17A
:1009A0004FF0FF3070474FF00000704780F000407C
:1009B00002E000BF81F0004142001FBF5FEA410337
:1009C00092EA030F7FEA226C7FEA236C6AD04FEA37
:1009D0001262D2EB1363C1BFD2184140484041407C
:1009E000B8BF5B42192B88BF704710F0004F40F42E
:1009F000000020F07F4018BF404211F0004F41F44A
:100A0000000121F07F4118BF494292EA030F3FD015
:100A1000A2F1010241FA03FC10EB0C00C3F1200328
:100A200001FA03F100F0004302D5494260EB4000B7
:100A3000B0F5000F13D3B0F1807F06D340084FEA22
:100A4000310102F10102FE2A51D2B1F1004F40EB17
:100A5000C25008BF20F0010040EA0300704749007F
:100A600040EB000010F4000FA2F10102EDD1B0FA4A
:100A700080FCACF1080CB2EB0C0200FA0CF0AABF3F
:100A800000EBC25052421843BCBFD04018437047DD
:100A900092F0000F81F4000106BF80F400000132E3
:100AA000013BB5E74FEA41037FEA226C18BF7FEABA
:100AB000236C21D092EA030F04D092F0000F08BFFC
:100AC0000846704790EA010F1CBF0020704712F0E3
:100AD0007F4F04D1400028BF40F00040704712F122
:100AE00000723CBF00F50000704700F0004343F087
:100AF000FE4040F4000070477FEA226216BF0846BD
:100B00007FEA23630146420206BF5FEA412390EA7F
:100B1000010F40F4800070474FF0000304E000BF75
:100B200010F0004348BF40425FEA000C08BF704726
:100B300043F0964301464FF000001CE050EA0102EA
:100B400008BF70474FF000030AE000BF50EA0102FF
:100B500008BF704711F0004302D5404261EB4101EC
:100B60005FEA010C02BF84460146002043F0B64311
:100B700008BFA3F18053A3F50003BCFA8CF2083A36
:100B8000A3EBC25310DB01FA02FC634400FA02FC3F
:100B9000C2F12002BCF1004F20FA02F243EB020046
:100BA00008BF20F00100704702F1200201FA02FCA8
:100BB000C2F1200250EA4C0021FA02F243EB02009B
:100BC00008BF20EADC707047DFF834D0002103E072
:100BD0000C4B5B58435004310B480C4B42189A4263
:100BE000F6D30B4A02E0002342F8043B094B9A4239
:100BF000F9D301F0E5FA03F017FA01F0CDF8FEE7BA
:100C000000000120F0400008000000200800002043
:100C1000080000204C030020FEE7034690F8440043
:100C2000E0B3D3ED095AD3ED0B7A37EEE56A93EDD5
:100C3000047A27EE067AD3ED0C7A37EE277A83ED25
:100C40000C7AD3ED106AB4EEE67AF1EE10FA26DDF6
:100C5000C3ED0C6A93ED0D7A35EEC75AD3ED037AE6
:100C600067EE867A93ED0C7A77EE877A93ED057AC4
:100C700027EE057A77EEC77AF4EEE76AF1EE10FA1E
:100C800008D4D3ED0F6AF4EEE76AF1EE10FA01DC56
:100C9000F0EE676AC3ED0A6AC3ED0D5A7047D3EDF3
:100CA0000F7AB4EEE77AF1EE10FAD3D5C3ED0C7AF1
:100CB000D0E70000B5EEC00AF1EE10FA24D4F5EE4C
:100CC000C00AF1EE10FA1FD4B5EEC01AF1EE10FA18
:100CD0001AD480ED000AC0ED010A80ED021AD0EDB1
:100CE0000E7AF8EE677ADFED106A87EEA67A80ED6D
:100CF000030A60EE870AC0ED040AC1EE077AC0ED70
:100D0000057A037E012B00D070479FED087A37EEFD
:100D1000400A80ED030A77EE600AC0ED040A77EE20
:100D2000677AC0ED057AEFE700007A440000000022
:100D3000B4EEE00AF1EE10FA1DDA80ED0F0AC0ED14
:100D4000100A90F84430B3B1D0ED0A7AF4EEE07AAC
:100D5000F1EE10FA10DDC0ED0A0AD0ED0C7AF4EED7
:100D6000E07AF1EE10FA0FDCF4EEC07AF1EE10FA50
:100D700001D580ED0C0A7047F4EEC07AF1EE10FA5E
:100D8000EBD580ED0A0AE8E7C0ED0C0A70470000D9
:100D900090F84430B3B1037E8B4213D090ED037AC8
:100DA000DFED097A37EEC77A80ED037A90ED047AA9
:100DB00037EEC77A80ED047A90ED057A77EEC77A40
:100DC000C0ED057A017670470000000038B52DEDC2
:100DD000048B0446B0EE408AF0EE608AB0EE419A91
:100DE0000D469FED120A80ED090A80ED0A0A80ED9A
:100DF0000B0A80ED0C0A80ED0D0A012380F84430C7
:100E0000DFED0B0AFFF794FF6423A3632946204616
:100E1000FFF7BEFFB0EE491AF0EE680AB0EE480ADE
:100E20002046FFF747FFBDEC048B38BD00000000F3
:100E300000FF7F472DE9F0418AB000240594069415
:100E4000079408940994584BDA6C42F00402DA646F
:100E5000DA6C02F004020192019ADA6C42F00102AB
:100E6000DA64DA6C02F001020292029ADA6C42F061
:100E70000202DA64DA6C02F002020392039ADA6C7C
:100E800042F08002DA64DB6C03F080030493049B7D
:100E9000DFF8288122464FF44041404601F05DFCD6
:100EA000224640F608014FF0904001F056FC3F4EBC
:100EB00022461021304601F050FC4FF44043059388
:100EC0000127069702250795089405A9404601F0D9
:100ED0007DFB49F237730593354B0693079505A9BA
:100EE0004FF0904001F072FB40F60803059306971F
:100EF0000795089405A94FF0904001F067FB102377
:100F0000059306970795089405A9304601F05EFB06
:100F1000C0230593274F0697079405A9304601F093
:100F200055FB082505950697079405A9224801F069
:100F30004DFB22462146062001F0C0F9062001F0B3
:100F4000F1F922462146072001F0B8F9072001F007
:100F5000E9F922462146284601F0B0F9284601F079
:100F6000E1F922462146092001F0A8F9092001F003
:100F7000D9F9224621460A2001F0A0F90A2001F001
:100F8000D1F922462146172001F098F9172001F0E7
:100F9000C9F922462146282001F090F9282001F0C5
:100FA000C1F90AB0BDE8F081001002400004004819
:100FB0000000311000001110001C0048000800481B
:100FC00000B583B00A4B9A6C42F002029A649B6CA3
:100FD00003F002030193019B00221146382001F027
:100FE0006DF9382001F09EF903B05DF804FB00BFF5
:100FF0000010024070B596B0002413941494159418
:101000000C940D940E940F941094119412942C221D
:10101000214601A803F02CF8224D234B2B606C6075
:10102000AC60EC602C616C61AC61284602F027FE7C
:1010300013941494159413A9284602F07FFF60239B
:101040000C934FF448730D930E940F94042610964E
:101050001194129422460CA9284602F065FE3246ED
:101060000CA9284602F060FE08220CA9284602F0CE
:101070005BFE019402940394049405944FF400538E
:101080000693079408944FF0007309930A940B9405
:101090000DEB0601284602F07FFF284600F0DEFF38
:1010A00016B070BD88010020002C014030B593B00F
:1010B00000240B940C940D940E940F94109411949E
:1010C0002C222146684602F0D3FF184D184B2B60A6
:1010D0006C60AC60EC602C616C61AC61284602F025
:1010E000B5FD284602F0CBFD60230B934FF4487307
:1010F0000C930D940E940F941094119422460BA906
:10110000284602F011FE0094019402940394049482
:101110004FF4005305930A946946284602F03CFFB9
:10112000284600F09BFF13B030BD00BF70020020C6
:101130000044014030B585B000240194029403942A
:10114000094D0A4B2B606C60AC6042F21073EB608F
:10115000AC61284602F07AFD0194039401A9284667
:1011600002F0ECFE05B030BDB002002000140040DB
:1011700008B50D480D4B0360002343604FF48062B7
:1011800082604FF47062C260036143614FF4007289
:1011900082610362436283620722C2620363436324
:1011A00002F09DF808BD00BFD0000020003C0040C8
:1011B00010B596B02422002106A802F059FF0024A1
:1011C0000094019402940394049410230593012243
:1011D0000B9260230D9302230F93109211922822F9
:1011E0001292072213921493159305A801F0D0FBD5
:1011F0000F23009303230193029403940494042186
:10120000684601F09FFE4FF4007001F0C5FA16B079
:1012100010BD00002DE91848B0F5805F5CD0402873
:1012200064D080286BD0082872D0431E9BB2012B5B
:1012300077D9042800F02A81102800F0278120287F
:1012400000F0C381B0F5807F00F0BF81B0F5007F72
:1012500000F06882B0F5806F00F06482B0F5004F56
:1012600042D17D4C062221467C4802F095F9B4F922
:101270000030222B38D0332B00F0F582AA2B33D14B
:10128000754BB3F90230012B00F08083022B00F084
:101290009B83032B00F0B683042B25D16E49B1F953
:1012A0000430B1F90620B1F90810642091FBF0F187
:1012B00001EE101A92FBF0F200EE902A93FBF0F38D
:1012C00000EE103AB8EEC11AF8EEE00AB8EEC00A25
:1012D0006348FFF7EFFC07E0624B01221A70624B94
:1012E00000200021C3E90001BDE818885F4B0122FE
:1012F0001A705F4B00200021C3E90001F4E75D4B49
:1013000001221A705C4B00200021C3E90001EBE7C9
:101310005A4B01221A705A4B00200021C3E90001E8
:10132000E2E701214FF0904001F010FA044602215B
:101330004FF0904001F00AFA524B1B682BB9524A09
:10134000126812B90CB90028CED01BB94E4A1268E7
:10135000012A2AD0012B2DD0012B34D023B94A4A9F
:1013600012680AB9002C39D01BB9474A1268012A01
:1013700032D0012B42D0012B49D023B9424A126806
:101380000AB9012C4ED01BB93F4A1268012A47D036
:10139000012B57D0012BA7D13B4B1B68012BA3D1AD
:1013A000002CA1D101289FD13EE0002CD2D10128F0
:1013B000D0D199E7344A1268002ACDD1012CCBD183
:1013C0000028C9D190E7304A1268012AC6D1012C01
:1013D000C4D10128C2D187E7012CCAD10128C8D1C4
:1013E0002149D1E9002312F1010B43F1000CC1E9BD
:1013F00000BC244B1C60244B186075E7224A12681D
:10140000012AB8D1012CB6D10028B4D1E8E71E4A90
:101410001268002AB1D1002CAFD10028ADD1DFE78E
:10142000002CB5D10028B3D10F49D1E9002312F126
:10143000FF3B43F1FF3CC1E900BC124B1C60124B67
:10144000186051E7104A1268002AA3D1012CA1D1DB
:1014500001289FD1E8E700BFB0000020D0000020A5
:10146000580000202B000020480000202A00002007
:101470004000002029000020380000202800002023
:1014800030000020C8010020A400002004214FF0FB
:10149000904001F05BF9044610214FF0904001F0BC
:1014A00055F9884B1B6833B9874A12681AB914B9C1
:1014B00000283FF419AF1BB9834A1268012A2ED0C5
:1014C000012B31D0012B38D023B97F4A12680AB9D9
:1014D000002C3DD01BB97C4A1268012A36D0012B62
:1014E00046D0012B4DD023B9774A12680AB9012C96
:1014F00052D01BB9744A1268012A4BD0012B5BD021
:10150000012B7FF4F1AE704B1B68012B7FF4ECAE26
:10151000002C7FF4E9AE01287FF4E6AE3EE0002C1B
:10152000CED10128CCD1DFE6674A1268002AC9D1A2
:10153000012CC7D10028C5D1D6E6634A1268012A1A
:10154000C2D1012CC0D10128BED1CDE6012CC6D11B
:101550000128C4D15D49D1E9002312F1010B43F107
:10156000000CC1E900BC574B1C60574B1860BBE630
:10157000554A1268012AB4D1012CB2D10028B0D149
:10158000E8E7514A1268002AADD1002CABD10028FF
:10159000A9D1DFE7002CB1D10028AFD14B49D1E967
:1015A000002312F1FF3B43F1FF3CC1E900BC454B76
:1015B0001C60454B186097E6434A1268002A9FD189
:1015C000012C9DD101289BD1E8E720214FF09040CC
:1015D00001F0BCF804464FF480714FF0904001F0E8
:1015E000B5F83B4B1B6833B93A4A12681AB914B9BB
:1015F00000283FF479AE1BB9364A1268012A2ED072
:10160000012B31D0012B38D023B9324A12680AB9E4
:10161000002C3DD01BB92F4A1268012A36D0012B6D
:1016200046D0012B5AD023B92A4A12680AB9012C94
:101630005FD01BB9274A1268012A58D0012B68D005
:10164000012B7FF451AE234B1B68012B7FF44CAE72
:10165000002C7FF449AE00287FF446AE4BE0002C0E
:10166000CED10128CCD13FE61A4A1268002AC9D14E
:10167000012CC7D10028C5D136E6164A1268012AC6
:10168000C2D1012CC0D10128BED12DE6012CC6D17A
:101690000128C4D11049D1E9002312F1010B43F113
:1016A000000CC1E900BC0A4B1C600A4B18601BE629
:1016B000084A1268012AB4D1012CB2D10028B0D155
:1016C000E8E700BF24020020A00000204000002026
:1016D0008401002054000020380000209D4A126838
:1016E000002AA0D1002C9ED100289CD1D2E7002C4A
:1016F000A4D10128A2D19849D1E9002312F1FF3BDE
:1017000043F1FF3CC1E900BC944B1C60914B186055
:10171000EAE5904A1268002A92D1012C90D1002863
:101720008ED1E8E74FF400714FF0904001F00EF8D1
:1017300004464FF480614FF0904001F007F8884B69
:101740001B6833B9874A12681AB914B900283FF4E4
:10175000CBAD1BB9834A1268012A2ED0012B31D0A0
:10176000012B38D023B97F4A12680AB9002C3DD02A
:101770001BB97C4A1268012A36D0012B46D0012BB6
:101780004DD023B9774A12680AB9012C52D01BB93F
:10179000744A1268012A4BD0012B5BD0012B7FF4D5
:1017A000A3AD704B1B68012B7FF49EAD002C7FF422
:1017B0009BAD01287FF498AD3EE0002CCED10128EE
:1017C000CCD191E5674A1268002AC9D1012CC7D152
:1017D0000028C5D188E5634A1268012AC2D1012CCC
:1017E000C0D10128BED17FE5012CC6D10128C4D1CA
:1017F0005D49D1E9002312F1010B43F1000CC1E96D
:1018000000BC574B1C60574B18606DE5554A126879
:10181000012AB4D1012CB2D10028B0D1E8E7514A55
:101820001268002AADD1002CABD10028A9D1DFE786
:10183000002CB1D10028AFD14B49D1E9002312F1DE
:10184000FF3B43F1FF3CC1E900BC454B1C60454BED
:10185000186049E5434A1268002A9FD1012C9DD1A6
:1018600001289BD1E8E7B4F90230012B21D0022BEB
:1018700039D0032B52D0042B7FF436AD3B4B1B7871
:10188000002B3FF431AD3A4BB3F9042030218A40AC
:10189000B3F90610202081400A43B3F9081042EA48
:1018A0000142B3F90A301A43D3173249C1E9002380
:1018B0001AE5314B1B78002B3FF416ADB4F9042028
:1018C00030218A40B4F90610202081400A43B4F93F
:1018D000081042EA0142B4F90A301A43D3172749E3
:1018E000C1E9002300E5264B1B78002B3FF4FCAC3C
:1018F0001F4BB3F9042030218A40B3F90610202091
:1019000081400A43B3F9081042EA0142B3F90A30B0
:101910001A43D3171B49C1E90023E5E41A4B1B788E
:10192000002B3FF4E1AC124BB3F9042030218A4084
:10193000B3F90610202081400A43B3F9081042EAA7
:101940000142B3F90A301A43D3170E49C1E9002303
:10195000CAE400BF540000203800002084010020A9
:10196000C0000020D8010020300000202800002006
:10197000B0000020A80000202B000020C80000209C
:101980002A00002040030020290000202C49B1F942
:101990000430B1F90620B1F90810642091FBF0F190
:1019A00001EE101A92FBF0F200EE902A93FBF0F396
:1019B00000EE103AB8EEC11AF8EEE00AB8EEC00A2E
:1019C0002048FFF777F98FE41D49B1F90430B1F9E8
:1019D0000620B1F90810642091FBF0F101EE101A15
:1019E00092FBF0F200EE902A93FBF0F300EE103A37
:1019F000B8EEC11AF8EEE00AB8EEC00A1248FFF7D6
:101A000059F971E40E49B1F90430B1F90620B1F980
:101A10000810642091FBF0F101EE101A92FBF0F235
:101A200000EE902A93FBF0F300EE103AB8EEC11AE4
:101A3000F8EEE00AB8EEC00A0448FFF73BF953E4B9
:101A4000B0000020DC010020280200203C01002022
:101A500038B58A4C8A4BD3E90001FFF777F8E0628A
:101A6000884BD3E90001FFF771F860622046FFF769
:101A7000D4F8A36A844D2B60844C854BD3E90001D4
:101A8000FFF764F8E062834BD3E90001FFF75EF8EB
:101A900060622046FFF7C1F8A26A7F4B1A607F4C54
:101AA0007F4BD3E90001FFF751F8E0627D4BD3E9AA
:101AB0000001FFF74BF860622046FFF7AEF8A26A1C
:101AC000794B1A60794C7A4BD3E90001FFF73EF865
:101AD000E062784BD3E90001FFF738F860622046F6
:101AE000FFF79BF8A26A744B1A60D5ED007AF5EE09
:101AF000C07AF1EE10FA6FDD704A536943F4004387
:101B000053616F4B1B686F4A82FB0312DB17C3EBF9
:101B1000623307EE903AF8EEE77A5B4B93ED007A8A
:101B200027EE877A684B1B68BCEEC77A83ED0D7A87
:101B3000594B93ED007AB5EEC07AF1EE10FA62DD02
:101B40004FF09042536943F008035361524B93EDB9
:101B5000007A27EE877A5D4B1B68BCEEC77A83ED6F
:101B60000D7A514A92ED007AB5EEC07AF1EE10FA94
:101B70005ADD57494A6942F010024A614A4A92EDD9
:101B8000007A67EE877AFCEEE77AC3ED0E7A4A4B6D
:101B9000D3ED007AF5EEC07AF1EE10FA54DCF5EEF2
:101BA000C07AF1EE10FA57D4454B1B68454A82FBC8
:101BB0000312DB17C3EB623307EE903AF8EEE77AD5
:101BC0003D4B93ED007A67EE877A404B1B68FCEE45
:101BD000E77AC3ED0F7A38BDF5EEC07AF1EE10FA70
:101BE0008FD53648436923F40043436101224FF403
:101BF000004100F0B2FD244BD3ED007AF1EE677A9C
:101C0000C3ED007A7DE7B5EEC07AF1EE10FA9DD50E
:101C10004FF09042536923F008035361B1EE477AC5
:101C20001D4B83ED007A91E7B5EEC07AF1EE10FA24
:101C3000A4D527494A6922F010024A61B1EE477AD9
:101C4000194A82ED007A99E701224FF400614FF0C2
:101C5000904000F082FDA7E700224FF400614FF0B2
:101C6000904000F07AFD144BD3ED007AB7EE007A85
:101C700077EE877AC3ED007A96E700BFDC0100209B
:101C8000C80000204800002050000020280200204A
:101C9000D001002040000020BC0000203C010020BA
:101CA00040030020380000203401002058000020AC
:101CB000A800002030000020F002002000080048AA
:101CC000380100206B2982747002002088010020F6
:101CD0000004004810B52DED048B9FED288A284C98
:101CE0000021B0EE481AF0EE480AB2EE040A20468F
:101CF000FFF76CF89FED239ADFED238AF0EE490A97
:101D0000B0EE680A2046FFF713F8204C0021B0EE31
:101D1000481AF0EE480AB2EE040A2046FFF756F8D9
:101D2000F0EE490AB0EE680A2046FFF701F8184CB9
:101D30000021B0EE481AF0EE480AB2EE040A20463E
:101D4000FFF744F8F0EE490AB0EE680A2046FEF7C5
:101D5000EFFF104C0021B0EE481AF0EE480AB2EE48
:101D6000040A2046FFF732F8F0EE490AB0EE680A9E
:101D70002046FEF7DDFFBDEC048B10BD0000000027
:101D8000DC010020CDCCCC3ECDCCCCBE2802002046
:101D90003C0100205800002008B500F04FFAFFF782
:101DA00007FAFFF747F8FFF70BF9FFF723F9FFF7FB
:101DB0007DF9FFF7DDF9FFF7BDF9FFF78BFF404A2B
:101DC00000234049C1E900233F49C1E900233F49BD
:101DD000C1E900233E4B4FF496700021C3E9000196
:101DE00001F060F93B4E30603B4D0021284602F087
:101DF00047F83A4C0021204602F080F804212046A2
:101E000002F07CF80821204602F078F8296833684F
:101E1000334A82FB0302DB17C3EB6233CB62EB6016
:101E20002268D362E360284601F0ECFD204601F011
:101E3000E9FD204600F012F9284600F00FF92A6863
:101E400000235363226853639363D36306222549B7
:101E5000254801F0A1FBFFF76DF9244C204601F065
:101E6000D1FD236801225A62DA6842F00102DA6089
:101E70004FF480411E4800F075FC642000F0FCF92E
:101E8000144B1B68164880FB0320DB17C3EB603044
:101E9000FEF7F0FA08A3D3E90023FEF755FB0E4B3B
:101EA0001C68FEF763FD60630C4B1B685863986306
:101EB000D863DDE7AFF300809A9999999999C93F62
:101EC000F0370500C8000020D001002040030020AA
:101ED000A8000020380100207002002088010020A6
:101EE0006B298274B0000020D0000020B0020020D6
:101EF000000800487047000082B00A4B1A6E42F09A
:101F000001021A661A6E02F001020092009A9A6D9E
:101F100042F080529A659B6D03F080530193019BC0
:101F200002B070470010024030B589B0002303931F
:101F300004930593069307930268214B9A4201D0BC
:101F400009B030BD044603F5EA339A6D42F400420D
:101F50009A659A6D02F400420192019ADA6C42F09D
:101F60000202DA64DB6C03F002030293029B282373
:101F7000039302230493032506950623079303A9DD
:101F8000104800F023FB1048104B0360456000230D
:101F90008360C360802202614FF4807242614FF41B
:101FA00080628261C3614FF40053036200F0F4F970
:101FB00018B9054BA3659C62C2E7FFF79BFFF8E7E2
:101FC000003C004000040048F402002008040240E5
:101FD0000268094B9A4200D0704782B003F564430F
:101FE0001A6E42F400621A661B6E03F400630193DA
:101FF000019B02B0704700BF002C014000B583B0C8
:102000000368134A934205D0124A934215D003B095
:102010005DF804FB104B9A6D42F020029A659B6DAF
:1020200003F020030093009B00221146372000F0AC
:1020300045F9372000F076F9E9E7074B1A6E42F4CC
:1020400000321A661B6E03F400330193019BDEE736
:1020500000140040004401400010024070B588B0F8
:102060000023039304930593069307930368244A7C
:10207000934204D0234A93422CD008B070BD224B27
:10208000DA6C42F00102DA64DA6C02F001020092CA
:10209000009ADA6C42F00202DA64DB6C03F00203AD
:1020A0000193019B80230393022604960324069444
:1020B0000125079503A94FF0904000F087FA03949B
:1020C0000496002305930694079503A90F4800F092
:1020D0007DFAD2E70C4BDA6C42F00102DA64DB6C79
:1020E00003F001030293029B402303930223049312
:1020F0000E23079303A94FF0904000F067FABCE766
:10210000002C01400044014000100240000400483F
:102110007047FEE7FEE7FEE7FEE77047704770474F
:1021200008B500F09BF808BD08B5012000F01EFBC3
:1021300008BD08B5022000F019FB08BD08B5042051
:1021400000F014FB08BD08B5082000F00FFB08BD27
:1021500008B5102000F00AFB08BD08B5202000F0EB
:1021600005FB402000F002FB802000F0FFFA4FF456
:10217000807000F0FBFA4FF4007000F0F7FA08BD31
:1021800008B54FF4806000F0F1FA4FF4805000F091
:10219000EDFA4FF4004000F0E9FA08BD08B5034835
:1021A00001F04FFCFFF754FC08BD00BFB002002057
:1021B00008B5024800F0A7F908BD00BFF4020020EE
:1021C0000F49D1F8883043F47003C1F888300D4BC3
:1021D0001A6842F001021A60002098601A6822F022
:1021E000A85222F410221A604FF48052DA601A6862
:1021F00022F480221A6098614FF000638B60704770
:1022000000ED00E00010024010B50446094B1868CC
:10221000094BA3FB0030800900F090F808B10120C1
:1022200010BD002221464FF0FF3000F047F800209B
:10223000F6E700BF00000020D34D621010B5032068
:1022400000F02AF80020FFF7DFFF10B1012420463C
:1022500010BD0446FFF750FEF9E70000024A13687C
:1022600001331360704700BF48030020014B18681A
:10227000704700BF4803002038B50446FFF7F6FF5B
:102280000546B4F1FF3F00D00134FFF7EFFF401BDC
:10229000A042FAD338BD0000074AD36823F4E063B4
:1022A0001B041B0C000200F4E060184340F0BF6008
:1022B00040F40030D060704700ED00E030B4174BC0
:1022C000DB68C3F30223C3F10704042C28BF0424F2
:1022D0001D1D062D18D9033B4FF0FF3505FA04F4F8
:1022E00021EA0401994005FA03F322EA03031943A2
:1022F00000280BDB0901C9B200F1604000F5614024
:1023000080F8001330BC70470023E5E700F00F00B1
:102310000901C9B2024B1954F4E700BF00ED00E017
:1023200014ED00E000F01F02400901239340024A2F
:1023300042F82030704700BF00E100E00138B0F102
:10234000807F0AD2064B5860064AF02182F823109B
:102350000020986007221A6070470120704700BF74
:1023600010E000E000ED00E070B4446C04F01C05E7
:10237000066C0124AC407460046863608368102BB1
:1023800005D0036899600368DA6070BC7047036821
:102390009A600368D960F8E7002869D010B4034652
:1023A0000168344A914245D8334A0A443349A1FB73
:1023B0000212120992004264314A0264022283F836
:1023C00025201868016821F4FF4121F070019A6806
:1023D000DC6822431C6922435C6922439C692243D6
:1023E000DC6922431C6A22430A4302609A68B2F500
:1023F000804F15D0196C224A914226D0214A11688B
:10240000586C00F01C040F20A04021EA000111606C
:10241000116858685C6C04F01C04A0400143116012
:102420000020D863012283F8252083F824005DF87A
:10243000044B7047144A0A441049A1FB02121209C6
:1024400092004264114A0264B8E7A8321168586CDD
:1024500000F01C040F20A04021EA00011160116867
:1024600058685C6C04F01C04A04001431160D7E77D
:102470000120704707040240F8FFFDBFCDCCCCCC53
:1024800000000240A8040240F8FBFDBF0004024027
:1024900038B590F82440012C33D0012480F8244032
:1024A00090F82540E4B2012C04D0002380F82430B9
:1024B000022038BD0446022084F825000020E06395
:1024C0002568286820F0010028602046FFF74CFFAF
:1024D000236B5BB12268136843F00E03136022681C
:1024E000136843F0010313600020E2E722681368D9
:1024F00023F0040313602268136843F00A03136097
:10250000EDE70220D5E738B5036C19680468256843
:10251000436C03F01C0304229A400A4215D015F0C4
:10252000040F12D0236813F0200F03D1236823F087
:1025300004032360436C03F01C02016C04239340EA
:102540004B60036B03B1984738BD02229A400A42A0
:102550001CD015F0020F19D0236813F0200F06D1FC
:10256000236823F00A032360012380F82530436C9D
:1025700003F01C02016C022393404B60002380F89F
:102580002430C36A002BDFD09847DDE7082202FA27
:1025900003F30B42D8D015F0080FD5D0236823F0F1
:1025A0000E032360436C03F01C03016C012202FA4A
:1025B00003F34B60C26380F82520002380F82430A9
:1025C000436B002BC0D09847BEE70000F0B482B048
:1025D00000236FE0866805EA060CCE68BE4046EA36
:1025E0000C068660466826EA04044E68C6F30016A8
:1025F0009E4026434660C46825408C68BC402C43FE
:10260000C4604C6814F0805F53D04C4C256E45F08C
:1026100001052566246E04F001040194019C9D08C7
:10262000AE1C474C54F8267003F00304A6000F2498
:10263000B44027EA0407B0F1904F77D0414CA04254
:1026400076D004F58064A0426ED00724B4403C43A9
:1026500002353B4E46F825403B4C2568D44304EAFE
:1026600005064F6817F4803F01D042EA0506364D53
:102670002E606D6804EA05064F6817F4003F01D02C
:1026800042EA0506304D6E60AD6804EA05064F6803
:1026900017F4801F01D042EA05062B4DAE60ED68AD
:1026A0002C404E6816F4001F01D042EA0504264A69
:1026B000D46001330A6832FA03F43BD001249C4011
:1026C0002240F6D04D68022D01D0122D10D1DE0827
:1026D000083650F826C003F00705AF000F25BD40AF
:1026E0002CEA050C0D69BD4045EA0C0540F8265062
:1026F00006685F000325BD40ED4305EA060C4E6801
:1027000006F00306BE4046EA0C0606604E6806F177
:10271000FF3CBCF1010F7FF65DAF112E3FF45AAFC5
:10272000122E7FF468AF55E702248FE700248DE76F
:1027300001248BE702B0F0BC704700BF00100240DC
:1027400000000140000400480004014003691942F0
:1027500001D100207047012070470AB9816270479B
:1027600081617047436959404161704708B5054B25
:102770005B69034200D108BD024B5861FEF74AFD78
:10278000F9E700BF00040140024B186800F4C06084
:10279000704700BF00700040B0F5007F0FD01F4BA6
:1027A0001B6803F4C063B3F5806F34D01B4A136811
:1027B00023F4C06343F48063136000207047174B19
:1027C0001B6803F4C063B3F5007F22D0134A13687B
:1027D00023F4C06343F400731360114B1A6832236F
:1027E00003FB02F30F4AA2FB03239B0C013300E01F
:1027F000013B0A4A526912F4806F01D0002BF7D1D5
:10280000064B5B6913F4806F01D1002070470320F1
:102810007047002070470020704700BF00700040E4
:102820000000002083DE1B4330B583B00546204BFB
:102830009B6D13F0805F0BD0FFF7A6FFB0F5007F14
:1028400017D0802D1FD82DD0702D2DD000211BE04A
:10285000174CA36D43F08053A365A36D03F0805321
:102860000193019BFFF790FFA36D23F08053A365B5
:10287000E4E7802D03D9A02D03D9022104E0002133
:1028800002E0012100E003210A4A136823F0070354
:102890000B431360136803F007038B4206D001203B
:1028A00003B030BD0221EFE70121EDE70020F7E79B
:1028B0000010024000200240314A9368D26802F0C2
:1028C000030213F00C030AD00C2B06D0042B1FD0EC
:1028D000082B20D00020014610E0012AF6D1284A1A
:1028E000126812F0080F0CD1254AD2F89420C2F3D6
:1028F0000322244951F8221043B100200C2B0DD0A3
:1029000070471F4A1268C2F30312F2E70846F5E760
:102910001D480021F2E71D480021EFE7184BDA6857
:1029200002F00302DB68C3F302130133022A0AD068
:10293000032A1AD0B1FBF3F3114AD068C0F3062082
:1029400000FB03F008E01048B0FBF3F30C4AD0683A
:10295000C0F3062000FB03F0094BDB68C3F34163BF
:1029600001335B00B0FBF3F0CAE70848B0FBF3F3B8
:10297000034AD068C0F3062000FB03F0ECE700BF79
:1029800000100240984000080024F40000127A0071
:10299000002800F0C182F0B583B00446AC4B9D68BE
:1029A00005F00C05DE6806F00306036813F0100F4F
:1029B0005DD0E5B10C2D18D0A369002B00F0B780D5
:1029C000A34A136843F001031360FFF74FFC074667
:1029D0009F4B1B6813F0020F40F09680FFF746FCF8
:1029E000C01B0228F4D90323A2E2012EE4D1984BA4
:1029F0001B6813F0020F03D0A369002B00F08F8235
:102A0000206A934B1B6813F0080F5DD0904B1B6836
:102A100003F0F00398425ED9FFF706FF002840F06C
:102A200080828B4B1A6842F008021A601A6822F002
:102A3000F002216A0A431A605A6822F47F42E1696F
:102A400042EA01225A60FFF737FF814B9B68C3F3CC
:102A50000313804AD35C03F01F03D8407E4B1860F9
:102A60000020FFF7D1FB0346002840F06182236875
:102A700013F0010F7AD0082D6FD00C2D6BD0636846
:102A8000B3F5803F00F09180B3F5A02F00F0938064
:102A90006F4B1A6822F480321A601A6822F480227E
:102AA0001A606368002B00F09380FFF7DFFB074696
:102AB000674B1B6813F4003F58D1FFF7D7FBC01BCF
:102AC0006428F5D9032333E2614BD3F894301B0912
:102AD00003F0F0039EE75E4B1A6842F008021A60AA
:102AE0001A6822F0F002216A0A431A605A6822F436
:102AF0007F42E16942EA01225A60206AFFF794FEB0
:102B00000028A0D0012313E2514B1A6842F00802BA
:102B10001A601A6822F0F002216A0A431A605A68A1
:102B200022F47F42E16942EA01225A609FE7484A63
:102B3000136823F001031360FFF798FB0746444B2B
:102B40001B6813F0020F92D0FFF790FBC01B022806
:102B5000F5D90323ECE1032E91D13D4B1B6813F40F
:102B6000003F03D06368002B00F0DD81236813F081
:102B7000020F4FD0042D3CD00C2D38D0E368002B31
:102B800075D0334A136843F480731360FFF76EFB0C
:102B900006462F4B1B6813F4806F5FD1FFF766FB6F
:102BA000801B0228F5D90323C2E1294A136843F4A4
:102BB0008033136075E703F18043A3F53C331A6853
:102BC00042F480221A601A6842F480321A6068E780
:102BD000FFF74CFB07461E4B1B6813F4003FC5D0A4
:102BE000FFF744FBC01B6428F5D90323A0E1022EA4
:102BF000C4D1174B1B6813F4806F03D0E368002B1C
:102C000000F09381124A536823F0F853216943EA94
:102C100001635360236813F0080F53D06369002BDE
:102C200039D00B4AD2F8943043F00103C2F8943003
:102C3000FFF71CFB0646064BD3F8943013F0020F47
:102C400040D1FFF713FB801B0228F4D903236FE167
:102C500000100240C840000800000020B74A536836
:102C600023F0F853216943EA01635360D2E7B34A82
:102C7000136823F480731360FFF7F8FA0646AF4B2E
:102C80001B6813F4806FC5D0FFF7F0FA801B022891
:102C9000F5D903234CE1A94AD2F8943023F001037B
:102CA000C2F89430FFF7E2FA0646A44BD3F894300A
:102CB00013F0020F06D0FFF7D9FA801B0228F4D9CF
:102CC000032335E1236813F0040F7AD09B4B9B6DEF
:102CD00013F0805F0BD1994B9A6D42F080529A6548
:102CE0009B6D03F080530193019B012600E00026B9
:102CF000934B1B6813F4807F26D0A368012B37D039
:102D0000052B3DD08D4BD3F8902022F00102C3F863
:102D10009020D3F8902022F00402C3F89020A368FA
:102D2000002B3BD0FFF7A2FA0746844BD3F8903034
:102D300013F0020F44D1FFF799FAC01B41F2883318
:102D40009842F2D90323F3E07D4A136843F4807379
:102D50001360FFF78BFA0746794B1B6813F4807FEB
:102D6000CBD1FFF783FAC01B0228F5D90323DFE09C
:102D7000724AD2F8903043F00103C2F89030CEE7A7
:102D80006E4BD3F8902042F00402C3F89020D3F8A1
:102D9000902042F00102C3F89020C0E7FFF766FAE6
:102DA0000746664BD3F8903013F0020F08D0FFF7B8
:102DB0005DFAC01B41F288339842F2D90323B7E091
:102DC000E6B9236813F0200F35D0636AE3B15B4A9C
:102DD000D2F8983043F00103C2F89830FFF746FA72
:102DE0000646564BD3F8983013F0020F23D1FFF765
:102DF0003DFA801B0228F4D9032399E04F4A936DD2
:102E000023F080539365DCE74C4AD2F8983023F0E6
:102E10000103C2F89830FFF729FA0646474BD3F86A
:102E2000983013F0020F06D0FFF720FA801B02281B
:102E3000F4D903237CE0A36A002B78D00C2D7AD040
:102E4000022B23D03D4B1A6822F080721A601B6857
:102E500013F0006F04D1394AD36823F00303D36021
:102E6000364AD36823F0887323F48033D360FFF7A6
:102E7000FDF90446314B1B6813F0007F4AD0FFF781
:102E8000F5F9001B0228F5D9032351E02B4A1368FA
:102E900023F080731360FFF7E9F90546274B1B68A1
:102EA00013F0007F06D0FFF7E1F9401B0228F5D9A7
:102EB00003233DE0236B5A1E636B1B0243EA02139C
:102EC000E26A1343E26B5208013A43EA4253226C2E
:102ED0005208013A43EA4263A26B43EAC263174ACB
:102EE000D360136843F080731360D36843F080733A
:102EF000D360FFF7BBF90446104B1B6813F0007F4B
:102F000006D1FFF7B3F9001B0228F5D903230FE020
:102F100000230DE000230BE0012318467047012336
:102F200006E0012304E0012302E0012300E0002386
:102F3000184603B0F0BD0123FAE700BF00100240BD
:102F400000700040002800F09A8070B504464E4B97
:102F50001B6803F007038B420CD24B4A136823F023
:102F600007030B431360136803F007038B4201D080
:102F7000012070BD0D46236813F0010F39D063683E
:102F8000032B09D0022B26D063BB404A126812F0F3
:102F9000020F06D10120ECE73C4A126812F0007FD4
:102FA0006FD03A498A6822F0030213438B60FFF71F
:102FB0005DF90646354B9B6803F00C036268B3EB82
:102FC000820F16D0FFF752F9801B41F288339842E6
:102FD000F0D90320CDE72D4A126812F4003FE0D16A
:102FE0000120C6E7294A126812F4806FD9D1012066
:102FF000BFE7236813F0020F06D0244A936823F03A
:10300000F003A1680B4393601F4B1B6803F0070399
:10301000AB420CD91C4A136823F007032B431360FF
:10302000136803F00703AB4201D00120A1E7236836
:1030300013F0040F06D0154A936823F4E063E168A7
:103040000B439360236813F0080F07D00F4A93686F
:1030500023F46053216943EAC1039360FFF72CFC1A
:103060000A4B9B68C3F30313094AD35C03F01F03A5
:10307000D840084B18600020FFF7C6F879E7012018
:103080007047012075E700BF002002400010024099
:10309000C840000800000020014B1868704700BFBE
:1030A0000000002008B5FFF7F7FF054B9B68C3F34E
:1030B000C223044AD35C03F01F03D84008BD00BFFD
:1030C00000100240D8400008F8B505460F461646E5
:1030D0001C462B689B6837EA03030CBF01230023BF
:1030E000B34237D0B4F1FF3FF3D0FFF7BFF8069BF0
:1030F000C01AA04201D2002CEBD12A68536823F0F9
:10310000E00353606B68B3F5827F0BD0AB6AB3F515
:10311000005F14D0012385F85D30002385F85C3012
:10312000032018E0AB68B3F5004F02D0B3F5806F11
:10313000ECD12A68136823F040031360E6E72A689D
:10314000136823F4005313602A68136843F4005390
:103150001360DFE70020F8BDF8B507460C461546BA
:103160001E4602E0B6F1FF3F0BD13A689368234058
:10317000AB423BD0B4F5C06FF4D1002DF2D1137B3C
:10318000F0E7FFF773F8069BC01AB04201D2002E99
:10319000EBD13A68536823F0E00353607B68B3F5E2
:1031A000827F0BD0BB6AB3F5005F14D0012387F890
:1031B0005D30002387F85C30032018E0BB68B3F56E
:1031C000004F02D0B3F5806FECD13A68136823F05A
:1031D00040031360E6E73A68136823F40053136072
:1031E0003A68136843F400531360DFE70020F8BD2A
:1031F00070B582B004460D46164600920B4600227A
:103200004FF4C051FFF7A8FFB8B900962B46002233
:1032100080212046FFF758FFB8B900962B460022C0
:103220004FF4C0612046FFF797FF034650B1236E6D
:1032300043F020032366032304E0236E43F02003BE
:1032400023660323184602B070BD236E43F02003AB
:1032500023660323F6E770B582B004460D46164692
:103260004368B3F5827F0FD000962B460022802161
:103270002046FFF729FF034698B96268B2F5827FBE
:1032800015D0184602B070BD8368B3F5004F02D068
:10329000B3F5806FE8D12268136823F04003136010
:1032A000E2E7236E43F0200323660323E9E7A268E5
:1032B000B2F5004F02D0B2F5806FE2D100962B46F6
:1032C00000224FF4C0612046FFF746FF0346002866
:1032D000D7D0236E43F0200323660323D1E70028D1
:1032E00053D010B504460023836290F85D30002B64
:1032F00040D0022384F85D302268136823F0400335
:103300001360E368B3F5E06F39D90022B3F5706F4D
:1033100004D0B3F5E06F01D00021A162216B21B987
:10332000B3F5E06F2ED9022323636368A1680B43D2
:1033300021690B4361690B43A16901F400710B43DF
:10334000E1690B43216A0B43A06A216803430B60C8
:10335000638B03F00403616A0B43616B0B43E16809
:103360000B43216813434B6000202066012384F83F
:103370005D3010BD80F85C30FEF7D6FDB9E74FF444
:103380008052C3E701232363CFE701207047000089
:1033900038B590F85C40012C00F0F2800446012022
:1033A00084F85C0094F85D00C0B26568012810D014
:1033B000B5F5827F05D00223002284F85C201846F0
:1033C00038BDA568002D40F0D380042801D0022329
:1033D000F2E7002900F0CE80002A00F0CD80002B1B
:1033E00000F0CC8094F85D00C0B2042802D0052023
:1033F00084F85D0000202066A163A387E387226430
:10340000A4F84430A4F84630E0642065226853688C
:1034100023F4C0435360E368B3F5E06F27D9226813
:10342000536823F48053536094F85D30DBB2042B6F
:1034300064D0A36D534A1A63A36D534ADA62A36D35
:10344000524A5A63A36D00229A632168B4F8463049
:10345000226C0C31A06DFFF71BF8002855D0236EAD
:1034600043F010032366012384F85D30A4E722684B
:10347000536843F480535360636D9B69B3F5806F69
:1034800019D0A36D9B69B3F5806FCDD122685368C5
:1034900023F480535360B4F8463013F0010F21D168
:1034A0002268536823F400535360B4F846305B0835
:1034B000A4F84630B8E7A38F13F0010F08D12268B3
:1034C000536823F480435360E38F5B08E387D8E7B6
:1034D0002268536843F480435360E38F5B080133F1
:1034E000E387CEE72268536843F400535360B4F88F
:1034F00046305B080133A4F8463095E7A36D244AB3
:103500001A63A36D234ADA6299E72268536843F08D
:1035100001035360626D00231363626DD362626DB9
:103520005363626D93632268E38F0C32A16B606D0D
:10353000FEF7AEFF034638B1236E43F01003236657
:10354000012384F85D3037E72268116811F0400FDD
:1035500003D1116841F04001116021684A6842F0CE
:1035600020024A6021684A6842F002024A6023E76A
:10357000022321E701231FE701231DE701231BE7A6
:1035800002231CE71F370008A53700082B37000867
:10359000133700084D37000838B5044685681DB953
:1035A0004368B3F5827F12D094F85C00012800F0E4
:1035B000A480012084F85C0094F85D00C0B201286A
:1035C0000ED00223002284F85C20184638BD042364
:1035D00080F85D3013460A46FFF7DAFE0346F4E74B
:1035E000002900F08680002A00F08580042384F8FA
:1035F0005D30002323662164A4F84420A4F846200B
:10360000E3642365A387E387B5F5004F2CD02268D8
:10361000536823F400535360E368B3F5E06F29D98E
:103620002268536823F480535360A36D344A1A63AD
:10363000A36D344ADA62A36D334A5A63A36D002244
:103640009A632168B4F84630226C0C31A06DFEF705
:103650001FFF0346002838D0236E43F01003236673
:10366000012384F85D30ADE72268136823F48043BA
:103670001360CCE72268536843F480535360A36D12
:103680009B69B3F5806FD0D12268536823F48053CF
:103690005360B4F8463013F0010F0AD12268536822
:1036A00023F400535360B4F846305B08A4F8463066
:1036B000BBE72268536843F400535360B4F84630C4
:1036C0005B080133A4F84630AFE72268116811F0B7
:1036D000400F03D1116841F04001116021684A6830
:1036E00042F020024A6021684A6842F001024A60C2
:1036F00068E7012366E7012364E7022365E700BF6B
:10370000133700084D3700082B3700087047704703
:10371000704708B5806AFFF7FBFF08BD704708B522
:10372000806AFFF7FBFF08BD704708B5806A026832
:10373000536823F003035360036E43F010030366E2
:10374000012380F85D30FFF7EFFF08BD38B505466F
:10375000846AFEF78BFD2B681B6813F0200F19D1CC
:103760002268536823F0200353602268536823F0D3
:1037700003035360024664212046FFF76CFD08B145
:10378000202323660023A4F84630012384F85D300B
:10379000236E1BB92046FFF7B9FF38BD2046FFF75F
:1037A000C3FFFAE738B50546846AFEF75FFD2B686C
:1037B0001B6813F0200F1CD12268536823F02003EC
:1037C0005360024664212046FFF712FD18B1236EB4
:1037D00043F0200323662268536823F003035360F9
:1037E0000023E387A4F84630012384F85D30236E7C
:1037F0001BB92046FFF78BFF38BD2046FFF794FF2B
:10380000FAE7000030B4036A23F001030362036A9D
:103810004468826922F4803222F073020D682A43E0
:1038200023F002038D682B43144DA84207D005F501
:10383000A055A84203D005F58065A84205D123F024
:103840000803CD682B4323F004030C4DA84207D096
:1038500005F5A055A84203D005F58065A84205D11D
:1038600024F440754C692C438D692C43446082617B
:103870004A684263036230BC704700BF002C0140BD
:1038800030B4036A23F480730362036A4268C46934
:1038900024F4803424F073040D682C4323F4007363
:1038A0008D6843EA0523124DA84219D0104DA84255
:1038B00007D005F5A055A84203D005F58065A842BC
:1038C00007D122F440524D6942EA05128D6942EA5D
:1038D00005124260C4614A68C263036230BC70472B
:1038E00023F40063CD6843EA052323F48063DDE716
:1038F000002C014030B4036A23F480530362026A4F
:103900004468C36923F0807323F4E6430D6843EAF7
:10391000052322F400528D6842EA05320B4DA8427D
:1039200007D005F5A055A84203D005F58065A8424B
:1039300004D124F480444D6944EA85144460C36191
:103940004B680364026230BC704700BF002C01402A
:1039500030B4036A23F480330362036A4468426D1F
:1039600022F4803222F070020D682A4323F40033DF
:103970008D6843EA05430B4DA84207D005F5A055D5
:10398000A84203D005F58065A84204D124F4803410
:103990004D6944EA0524446042654A6882650362D1
:1039A00030BC7047002C014030B4036A23F480130C
:1039B0000362026A4468436D23F0807323F4E0439A
:1039C0000D6843EA052322F400128D6842EA05528D
:1039D0000B4DA84207D005F5A055A84203D005F528
:1039E0008065A84204D124F480244D6944EA8524EA
:1039F000446043654B68C365026230BC704700BFDA
:103A0000002C0140022380F83D3002689168094B88
:103A10000B40062B09D09168064B0B40B3F5803F55
:103A200003D0136843F001031360012380F83D3095
:103A300000207047070001007047704770477047CB
:103A4000704710B5044603681A6912F0020F11D0CE
:103A5000DA6812F0020F0DD06FF002021A61012332
:103A6000037703689B6913F0030F79D0FFF7E6FF34
:103A70000023237723681A6912F0040F12D0DA6842
:103A800012F0040F0ED06FF004021A6102232377A4
:103A900023689B6913F4407F68D02046FFF7CEFF70
:103AA0000023237723681A6912F0080F12D0DA680E
:103AB00012F0080F0ED06FF008021A61042323776A
:103AC0002368DB6913F0030F57D02046FFF7B6FFDA
:103AD0000023237723681A6912F0100F12D0DA68D6
:103AE00012F0100F0ED06FF010021A610823237726
:103AF0002368DB6913F4407F46D02046FFF79EFF22
:103B00000023237723681A6912F0010F03D0DA68C3
:103B100012F0010F3FD123681A6912F0800F03D011
:103B2000DA6812F0800F3DD123681A6912F4807FA1
:103B300003D0DA6812F0800F3BD123681A6912F0C3
:103B4000400F03D0DA6812F0400F39D123681A69A8
:103B500012F0200F03D0DA6812F0200F37D110BD19
:103B6000FFF76BFF2046FFF76AFF81E72046FFF76C
:103B700064FF2046FFF763FF92E72046FFF75DFFF3
:103B80002046FFF75CFFA3E72046FFF756FF2046DD
:103B9000FFF755FFB4E76FF001021A612046FFF707
:103BA0004BFFB8E76FF080021A61204600F039FA47
:103BB000BAE76FF480721A61204600F033FABCE76E
:103BC0006FF040021A612046FFF73AFFBEE76FF040
:103BD00020021A61204600F023FAC0E703681A4A5F
:103BE000904202D0B0F1804F03D123F070034A68B5
:103BF0001343154A90420AD0B0F1804F07D002F526
:103C0000A052904203D002F58062904203D123F487
:103C10004073CA68134323F080034A691343036067
:103C20008B68C3620B688362074B984207D003F529
:103C3000A053984203D003F58063984201D10B69E9
:103C40000363012343617047002C0140A8B110B504
:103C5000044690F83D305BB1022384F83D30211DCD
:103C60002068FFF7BBFF012384F83D30002010BD22
:103C700080F83C30FEF7C2F9EEE701207047A8B1AA
:103C800010B5044690F83D305BB1022384F83D3016
:103C9000211D2068FFF7A2FF012384F83D3000209A
:103CA00010BD80F83C30FEF793F9EEE70120704735
:103CB00030B4036A23F010030362036A4468826924
:103CC00022F0807222F4E6420D6842EA052223F0D7
:103CD00020038D6843EA0513124DA84219D0114DF7
:103CE000A84207D005F5A055A84203D005F5806588
:103CF000A84207D124F440644D6944EA85048D69E3
:103D000044EA8504446082614A688263036230BC8D
:103D1000704723F08003CD6843EA051323F0400386
:103D2000DDE700BF002C014038B590F83C30012B96
:103D300000F092800D460446012380F83C300223B7
:103D400080F83D30142A1ED8DFE802F00B1D1D1D3F
:103D5000241D1D1D381D1D1D4B1D1D1D5F1D1D1D01
:103D600072000068FFF74EFD2268936943F0080374
:103D700093612268936923F0040393612268936935
:103D800029690B439361012384F83D30002084F8B6
:103D90003C0038BD0068FFF78BFF2268936943F44D
:103DA000006393612268936923F4806393612268BE
:103DB0009369296943EA01239361E4E70068FFF707
:103DC0005FFD2268D36943F00803D3612268D36999
:103DD00023F00403D3612268D36929690B43D361BB
:103DE000D1E70068FFF786FD2268D36943F40063DA
:103DF000D3612268D36923F48063D3612268D369D5
:103E0000296943EA0123D361BDE70068FFF7A0FDFC
:103E10002268536D43F0080353652268536D23F005
:103E2000040353652268536D29690B435365AAE760
:103E30000068FFF7B9FD2268536D43F400635365D2
:103E40002268536D23F4806353652268536D29699A
:103E500043EA0123536596E702209AE710B401F084
:103E60001F01012303FA01F4036A23EA0403036236
:103E7000036A8A40134303625DF8044B70470000F5
:103E800010B5044601220068FFF7E8FF2368104AD6
:103E9000934207D002F5A052934203D002F580620C
:103EA000934203D15A6C42F400425A6422689168EA
:103EB000084B0B40062B09D09168064B0B40B3F51D
:103EC000803F03D0136843F001031360002010BD4E
:103ED000002C01400700010010B401F01F01042371
:103EE00003FA01F4036A23EA04030362036A8A40C3
:103EF000134303625DF8044B7047000010B504469D
:103F000004220068FFF7E8FF2268536C43F4004383
:103F1000536422689168084B0B40062B09D09168C6
:103F2000054B0B40B3F5803F03D0136843F001030A
:103F30001360002010BD00BF0700010090F83C3066
:103F4000012B25D030B4012380F83C30022380F8C7
:103F50003D300268536895680E4CA24213D023F09E
:103F600070030C68234325F0800489682143536063
:103F700003689960012380F83D30002380F83C30CD
:103F8000184630BC704723F470034C682343E6E7BF
:103F900002207047002C014090F83C30012B3BD0B0
:103FA00010B4012380F83C30CB6823F440738A6856
:103FB000134323F480634A68134323F400630A68BD
:103FC000134323F480530A69134323F400534A69CB
:103FD000134323F480438A6A134323F470238A69CA
:103FE00043EA024302680D4CA24207D05364002307
:103FF00080F83C3018465DF8044B704723F470039A
:104000004C6A43EA045323F08073CC69234323F0C2
:104010000073096A0B43E9E702207047002C014056
:10402000704770477047000070B50D4E0D4CA41BD3
:10403000A4100025A54209D10B4E0C4C00F020F82D
:10404000A41BA4100025A54205D170BD56F825304B
:1040500098470135EEE756F8253098470135F2E7E5
:10406000E0400008E0400008E0400008E4400008AC
:1040700002440346934200D1704703F8011BF9E75D
:10408000F8B500BFF8BC08BC9E467047F8B500BF45
:08409000F8BC08BC9E46704715
:10409800A0860100400D0300801A060000350C00C0
:1040A80040420F0080841E0000093D0000127A0083
:1040B8000024F40000366E010048E801006CDC02C0
:1040C80000000000000000000102030406070809C0
:0840D8000000000001020304D6
:0840E000B5010008000000001A
:0840E800910100080000000036
:0840F00000093D000000000082
:0400000508000BC91B
:00000001FF
